:100000000C942A000C9447000C9447000C94470071
:100010000C9447000C9447000C9447000C94470044
:100020000C9447000C9447000C9447000C94470034
:100030000C9447000C9447000C9447000C94470024
:100040000C9447000C9447000C9447000C94470014
:100050000C94470011241FBECFE5D8E0DEBFCDBF12
:1000600011E0A8E6B1E001C01D92AC36B107E1F79E
:1000700011E0A0E6B0E0EAEBFAE502C005900D92CF
:10008000A836B107D9F70E94302C0C945B2D0C9444
:100090000000EF92FF920F931F937B018C0120E0F1
:1000A00030E040E05FE40E94821188238CF0C801B8
:1000B000B70120E030E040E05FE40E944E0F0E9474
:1000C000E2119B01AC01205030404040504806C036
:1000D000C801B7010E94E2119B01AC01B901CA013C
:1000E0001F910F91FF90EF900895A0E0B0E0EBE733
:1000F000F0E00C94242D7B018C0120E030E040E8FE
:100100005FE30E94B21188234CF4AA24BB24CC24C0
:10011000DD24EE24FF2400E010E086C0C801B70112
:1001200020E030E040E85FE40E94B211882354F4FC
:10013000C801B7010E9449005B016C01EE24FF2455
:10014000870172C0C801B70120E030E040E85FE5F8
:100150000E94B21187FD0FC0AA24AA94BB24BA94AE
:10016000CC24CA94DD24DA94EE24EA94FF24FA9491
:100170000FEF1FEF59C0C801B70120E030E040E8A1
:100180005FE20E94AC0F7B018C0122243324210109
:1001900090E1A92EB12CC12CD12CC0E0D0E061E0BF
:1001A00070E080E090E00A2C04C0660F771F881F83
:1001B000991F0A94D2F70E9436123B014C01C801E4
:1001C000B701A40193010E948211882364F02A28B8
:1001D0003B284C285D28C801B701A40193010E9467
:1001E000A6107B018C01D694C794B794A79421964E
:1001F000C530D105A1F6C801B70120E030E040E8E4
:100200005FE40E94AC0F0E9449005B016C019B01FE
:10021000A60160E070E080E090E0022D0E94AF1245
:1002200059016A017B018C019501A601B701C80142
:10023000CDB7DEB7E2E10C94402DAEE5B0E0E3E2ED
:10024000F1E00C94242DA8E04E010894811C911C2F
:10025000F4016A2E11926A94E9F729833A834B8359
:100260005C836D837E838F839887CE010996FC0122
:100270001192AA95E9F7A986BA86CB86DC86ED8627
:10028000FE860F87188B29843A844B845C84ED8426
:10029000FE840F85188969807A808B809C806DA68A
:1002A0007EA68FA698AA6D807E808F809884E114A8
:1002B000F1040105110509F0B3C362147304840449
:1002C000950408F03DC100E0201600E0300601E092
:1002D000400600E0500688F41FEF21163104410467
:1002E000510439F030F048E0E42EF12C012D112DAD
:1002F00018C0EE24FF24870114C020E0221620E05D
:10030000320620E0420621E0520630F038E1E32ECA
:10031000F12C012D112D05C020E1E22EF12C012D33
:10032000112DD201C1010E2C04C0B695A795979549
:1003300087950A94D2F788599F4FDC012C9180E26F
:1003400090E0A0E0B0E08E199F09A00BB10B7C01FA
:100350008D01E21AF10801091109E114F104010506
:100360001105A1F10E2C04C0220C331C441C551C99
:100370000A94D2F7A40193010E2C04C0220F331F5C
:10038000441F551F0A94D2F780E290E08E199F090E
:100390006DA47EA48FA498A804C0969487947794A3
:1003A00067948A95D2F7622A732A842A952AADA483
:1003B000BEA4CFA4D8A804C0AA0CBB1CCC1CDD1CB6
:1003C000EA94D2F7ADA6BEA6CFA6D8AA6201EE24C3
:1003D000FF24CDAADEAAEFAAF8AE92018101207017
:1003E000307009AF1AAF2BAF3CAFC401B301A70106
:1003F00096010E94022D7B018C01C401B3012DA93D
:100400003EA94FA958AD0E94022DC901DA013C0155
:100410004D01C401B30129AD3AAD4BAD5CAD0E94B5
:10042000D72C9B01AC018701FF24EE24ADA4BEA410
:10043000CFA4D8A8C601AA27BB2757016801A82ABC
:10044000B92ACA2ADB2AA216B306C406D506E0F4E6
:1004500008946108710881089108A20CB31CC41C9F
:10046000D51CA214B304C404D50470F0A216B306BC
:10047000C406D50648F408946108710881089108FB
:10048000A20CB31CC41CD51CA21AB30AC40AD50AF8
:10049000C601B5012DA93EA94FA958AD0E94022D54
:1004A0007B018C01C601B5012DA93EA94FA958AD0C
:1004B0000E94022DC901DA015C016D01C601B5017E
:1004C00029AD3AAD4BAD5CAD0E94D72C9B01AC0180
:1004D0008701FF24EE248DA59EA5AFA5B8A9A07025
:1004E000B070E82AF92A0A2B1B2BE216F306040740
:1004F0001507C0F40894A108B108C108D108E20C9E
:10050000F31C041D151DE214F3040405150550F039
:10051000E216F3060407150728F40894A108B108A9
:10052000C108D108D3019927882786017501E82AD7
:10053000F92A0A2B1B2BE9AAFAAA0BAB1CABCFC4D6
:10054000211431044104510471F461E070E080E051
:1005500090E020E030E040E050E00E94022DC90130
:10056000DA011C012D0100E0201600E0300601E058
:10057000400600E0500688F41FEF211631044104C4
:10058000510431F028F048E050E060E070E017C01E
:1005900040E050E060E070E012C020E0221620E071
:1005A000320620E0420621E0520628F048E150E001
:1005B00060E070E004C040E150E060E070E0D20133
:1005C000C101042E04C0B695A795979587950A9406
:1005D000D2F788599F4FDC012C91E0E2EE2EF12CEE
:1005E000012D112DD801C701841B950BA60BB70B4C
:1005F000821B9109A109B1090097A105B10561F418
:1006000064015301A218B308C408D50831E0632E71
:10061000712C812C912C1EC16F968FAF6F97082E75
:1006200004C0220C331C441C551C0A94D2F7EE2D36
:10063000E81B640153010E2E04C0D694C794B794EE
:10064000A7940A94D2F7A40193016F960FAC6F9709
:1006500004C0220F331F441F551F0A94D2F76DA404
:100660007EA48FA498A80E2E04C0969487947794A5
:1006700067940A94D2F784017301E22AF32A042BC7
:10068000152BE9A6FAA60BA71CA7320188249924EA
:10069000920181012070307021960CAF1DAF2EAFFA
:1006A0003FAF2197C601B501A40193010E94022D1D
:1006B0007B018C01C601B501A40193010E94022DAA
:1006C000C901DA0125968CAF9DAFAEAFBFAF2597BC
:1006D000BC01CD0121962CAD3DAD4EAD5FAD219756
:1006E0000E94D72C9B01AC018701FF24EE24A9A412
:1006F000BAA4CBA4DCA4C601AA27BB275C016D0168
:10070000AE28BF28C02AD12AA216B306C406D50631
:1007100060F525966CAD7DAD8EAD9FAD2597615092
:1007200070408040904025966CAF7DAF8EAF9FAFFC
:100730002597A20CB31CC41CD51CA214B304C4047A
:10074000D50498F0A216B306C406D50670F461501D
:1007500070408040904025966CAF7DAF8EAF9FAFCC
:100760002597A20CB31CC41CD51CA21AB30AC40A38
:10077000D50AC601B501A40193010E94022D7B0197
:100780008C01C601B501A40193010E94022DC9018B
:10079000DA013C014D01C401B30121962CAD3DAD00
:1007A0004EAD5FAD21970E94D72C9B01AC01870114
:1007B000FF24EE2489A59AA5ABA5BCA5A070B070B6
:1007C00057016801A82AB92ACA2ADB2AA216B30649
:1007D000C406D506E0F40894610871088108910800
:1007E000A20CB31CC41CD51CA214B304C404D504AD
:1007F00070F0A216B306C406D50648F40894610842
:10080000710881089108A20CB31CC41CD51C8DA5CD
:100810009EA5AFA5B8A96F960FAC6F9704C0880FBF
:10082000991FAA1FBB1F0A94D2F78DA79EA7AFA737
:10083000B8ABA21AB30AC40AD50A2596ECACFDAC33
:100840000EAD1FAD2597D70199278827682A792AE9
:100850008A2A9B2A82012227332729960CAF1DAFB3
:100860002EAF3FAF2997A2019101407050702D9695
:100870002CAF3DAF4EAF5FAF2D97C601B5012996A6
:100880002CAD3DAD4EAD5FAD29970E94022D7B0191
:100890008C01C601B50129962CAD3DAD4EAD5FADC5
:1008A00029970E94022DC901DA0161968CAF9DAF94
:1008B000AEAFBFAF6197BC01CD012D962CAD3DAD64
:1008C0004EAD5FAD2D970E94D72C9B01AC018701E7
:1008D000FF24EE24ADA4BEA4CFA4D8A8C601AA27A5
:1008E000BB2757016801A82AB92ACA2ADB2AA216FF
:1008F000B306C406D50660F561966CAD7DAD8EADD0
:100900009FAD6197615070408040904061966CAFA0
:100910007DAF8EAF9FAF6197A20CB31CC41CD51CDA
:10092000A214B304C404D50498F0A216B306C406F6
:10093000D50670F4615070408040904061966CAF75
:100940007DAF8EAF9FAF6197A20CB31CC41CD51CAA
:10095000A21AB30AC40AD50AC601B50129962CAD5C
:100960003DAD4EAD5FAD29970E94022D7B018C01FC
:10097000C601B50129962CAD3DAD4EAD5FAD2997B1
:100980000E94022DC901DA015C016D01C601B501A9
:100990002D962CAD3DAD4EAD5FAD2D970E94D72C61
:1009A0009B01AC018701FF24EE248DA59EA5AFA578
:1009B000B8A9A070B070E82AF92A0A2B1B2BE216FE
:1009C000F30604071507C0F40894A108B108C1088C
:1009D000D108E20CF31C041D151DE214F3040405F8
:1009E000150550F0E216F3060407150728F40894DD
:1009F000A108B108C108D1086196ECACFDAC0EAD00
:100A00001FAD6197D7019927882796018501082B8B
:100A1000192B2A2B3B2B09AB1AAB2BAB3CAB62C27D
:100A20006E147F048006910608F451C220E0E2169D
:100A300020E0F20621E0020720E0120788F43FEFF1
:100A4000E316F1040105110531F028F048E050E00B
:100A500060E070E017C040E050E060E070E012C07D
:100A600040E0E41640E0F40640E0040741E01407EB
:100A700028F048E150E060E070E004C040E150E060
:100A800060E070E0D801C701042E04C0B695A795B8
:100A9000979587950A94D2F788599F4FDC012C913E
:100AA00030E2A32EB12CC12CD12CD601C501841B60
:100AB000950BA60BB70B821B9109A109B1090097F1
:100AC000A105B10589F4E614F7040805190508F431
:100AD000F2C16DA47EA48FA498A862147304840448
:100AE000950408F0E8C1F3C16E968FAF6E97082E9B
:100AF00004C0EE0CFF1C001F111F0A94D2F76A2DD0
:100B0000681BD201C101062E04C0B695A795979522
:100B100087950A94D2F75C016D01AE28BF28C02AE0
:100B2000D12AADA2BEA2CFA2D8A6720161016E9653
:100B30000FAC6E9704C0CC0CDD1CEE1CFF1C0A949D
:100B4000D2F7C9A2DAA2EBA2FCA264015301062EDD
:100B500004C0D694C794B794A7940A94D2F7D4014A
:100B6000C3016E960FAC6E9704C0880F991FAA1F21
:100B7000BB1F0A94D2F7EDA4FEA40FA518A904C0C8
:100B800016950795F794E7946A95D2F737014801CF
:100B9000682A792A8A2A9B2A6D8E7E8E8F8E98A249
:100BA000EDA0FEA00FA118A5380188249924980172
:100BB00087012070307065960CAF1DAF2EAF3FAF30
:100BC0006597C601B501A40193010E94022D7B0126
:100BD0008C01C601B501A40193010E94022DC90137
:100BE000DA011C012D01C201B10165962CAD3DADAC
:100BF0004EAD5FAD65970E94D72C9B01AC0187017C
:100C0000FF24EE24AD8CBE8CCF8CD8A0C601AA27C1
:100C1000BB2757016801A82AB92ACA2ADB2AA216CB
:100C2000B306C406D50600F508942108310841082A
:100C30005108EDA0FEA00FA118A5AE0CBF1CC01E50
:100C4000D11EAE14BF04C006D10670F0A216B306C2
:100C5000C406D50648F40894210831084108510813
:100C6000AE0CBF1CC01ED11EA21AB30AC40AD50AFC
:100C7000C601B501A40193010E94022D7B018C01E4
:100C8000C601B501A40193010E94022DC901DA0138
:100C90003C014D01C401B30165962CAD3DAD4EAD97
:100CA0005FAD65970E94D72C9B01AC018701FF24A3
:100CB000EE248D8D9E8DAF8DB8A1A070B0705701C0
:100CC0006801A82AB92ACA2ADB2AA216B306C406D2
:100CD000D50600F5089461087108810891086DA196
:100CE0007EA18FA198A5A60EB71EC81ED91EA61656
:100CF000B706C806D90670F0A216B306C406D50614
:100D000048F408946108710881089108A60EB71E7E
:100D1000C81ED91ED601C501821B930BA40BB50BAF
:100D2000898F9A8FAB8FBC8FD10199278827640157
:100D30005301A82AB92ACA2ADB2AA9AABAAACBAA85
:100D4000DCAA860175012FEF3FEF40E050E0E22280
:100D5000F32204231523A601662777276D964CAF4F
:100D60005DAF6EAF7FAF6D97A9A0BAA0CBA0DCA09E
:100D70006FEF7FEF80E090E0A622B722C822D92251
:100D800089A19AA1ABA1BCA11D0144245524C8018D
:100D9000B701A60195010E94D72C69966CAF7DAF73
:100DA0008EAF9FAF6997C801B701A20191010E9460
:100DB000D72C3B014C016D966CAD7DAD8EAD9FADDA
:100DC0006D97A60195010E94D72C7B018C016D9631
:100DD0006CAD7DAD8EAD9FAD6D97A20191010E946E
:100DE000D72C5B016C01A8019701260D371D481D0A
:100DF000591D69966CAC7DAC8EAC9FAC6997C401F3
:100E0000AA27BB27280F391F4A1F5B1F2E153F0536
:100E10004007510748F4E12CF12C61E0062F112D19
:100E2000AE0CBF1CC01ED11ECA01AA27BB27BC0125
:100E3000CD016A0D7B1D8C1D9D1D698C7A8C8B8C60
:100E40009C8C661677068806990640F1661577052C
:100E50008805990509F043C0D90199278827699623
:100E60002CAD3DAD4EAD5FAD699740705070820FB7
:100E7000931FA41FB51F2DA53EA54FA558A96E967B
:100E80000FAC6E9704C0220F331F441F551F0A94E6
:100E9000D2F7281739074A075B0708F509A91AA9E5
:100EA0002BA93CA9015010402040304009AB1AAB9F
:100EB0002BAB3CAB14C066247724430121E030E027
:100EC00040E050E029AB3AAB4BAB5CAB0BC06624C7
:100ED0007724430119AA1AAA1BAA1CAA03C06624D4
:100EE00077244301FE01719688E0DF011D928A9507
:100EF000E9F7A9A8BAA8CBA8DCA8A98ABA8ACB8A9C
:100F0000DC8A6D8A7E8A8F8A988E29A93A894B89D4
:100F10005C89662D7E898F89988DC25ADF4FE2E108
:100F20000C94402DABE5B0E0E8E9F7E00C94242DFB
:100F3000A8E04E010894811C911CF4016A2E1192C4
:100F40006A94E9F729833A834B835C836D837E83BC
:100F50008F839887CE010996FC011192AA95E9F733
:100F6000A986BA86CB86DC86ED86FE860F87188B2F
:100F700029843A844B845C84AD84BE84CF84D88831
:100F800029813A814B815C8169962FAF69976A9676
:100F90003FAF6A976B964FAF6B976C965FAF6C974E
:100FA0006C966CAC7DAC8EAC9FAC6C9769AA7AAA3F
:100FB0008BAA9CAA6D817E818F8198853B014C0113
:100FC0006DAA7EAA8FAA98AEA114B104C104D1045F
:100FD00009F004C3621473048404950408F000C18A
:100FE00000E0201600E0300601E0400600E0500678
:100FF00088F41FEF211631044104510439F030F018
:1010000088E0E82EF12C012D112D18C0EE24FF24CC
:10101000870114C040E0241640E0340640E0440656
:1010200041E0540630F0B8E1EB2EF12C012D112DEA
:1010300005C0A0E1EA2EF12C012D112DD201C10134
:101040000E2C04C0B695A795979587950A94D2F76C
:1010500088599F4FDC012C9180E290E0A0E0B0E045
:101060008E199F09A00BB10B5C016D01A21AB1088A
:10107000C108D108A9AEBAAECBAEDCAEA114B104A2
:10108000C104D10409F43FC069AD062E04C0220C8E
:10109000331C441C551C0A94D2F7A4019301062E5C
:1010A00004C0220F331F441F551F0A94D2F780E259
:1010B00090E08A199B096C96CCACDDACEEACFFAC31
:1010C0006C9704C0F694E794D794C7948A95D2F7A6
:1010D00087017601E22AF32A042B152BEDAAFEAA3A
:1010E0000FAB18AF6C968CAD9DADAEADBFAD6C9730
:1010F00004C0880F991FAA1FBB1F6A95D2F789AB3E
:101100009AABABABBCAB320188249924B201A101EC
:101110006070707021964CAF5DAF6EAF7FAF21975E
:101120006DA97EA98FA998ADA40193010E94022DFB
:101130007B018C016DA97EA98FA998ADA4019301B3
:101140000E94022DCA01B90121962CAD3DAD4EADD4
:101150005FAD21970E94D72C9B01AC018701FF2432
:10116000EE24A9A8BAA8CBA8DCA8C601AA27BB2749
:1011700057016801A82AB92ACA2ADB2AA216B3068F
:10118000C406D50690F4A20CB31CC41CD51CA21432
:10119000B304C404D50448F0A216B306C406D506A9
:1011A00020F4A20CB31CC41CD51CA21AB30AC40A96
:1011B000D50AC601B501A40193010E94022D7B014D
:1011C0008C01C601B501A40193010E94022DCA0140
:1011D000B90121962CAD3DAD4EAD5FAD2197BAC1A1
:1011E000211431044104510471F461E070E080E0A5
:1011F00090E020E030E040E050E00E94022DC90184
:10120000DA011C012D0100E0201600E0300601E0AB
:10121000400600E0500688F41FEF21163104410417
:10122000510439F030F068E0E62EF12C012D112D3B
:1012300018C0EE24FF24870114C040E0241640E0CB
:10124000340640E0440641E0540630F058E1E52E13
:10125000F12C012D112D05C040E1E42EF12C012DC2
:10126000112DD201C1010E2C04C0B695A7959795FA
:1012700087950A94D2F788599F4FDC012C9130E270
:10128000A32EB12CC12CD12CD601C5018E199F09DA
:10129000A00BB10B7C018D01E21AF10801091109C3
:1012A000E9AEFAAE0BAF1CAFE114F1040105110574
:1012B00039F464015301A218B308C408D508E2C088
:1012C000F9AC6896FFAE68970F2C04C0220C331C53
:1012D000441C551C0A94D2F78A2D8F1964015301BE
:1012E000082E04C0D694C794B794A7940A94D2F752
:1012F000A401930104C0220F331F441F551FFA9409
:10130000D2F76C966CAC7DAC8EAC9FAC6C9704C085
:1013100096948794779467948A95D2F784017301A1
:10132000E22AF32A042B152BEDA6FEA60FA718AB75
:10133000320188249924B201A10160707070259651
:101340004CAF5DAF6EAF7FAF2597C601B501A4016D
:1013500093010E94022D7B018C01C601B501A401FD
:1013600093010E94022DCA01B90125962CAD3DAD15
:101370004EAD5FAD25970E94D72C9B01AC01870134
:10138000FF24EE24ADA4BEA4CFA4D8A8C601AA27EA
:10139000BB275C016D01AE28BF28C02AD12AA21646
:1013A000B306C406D50690F4A20CB31CC41CD51C0D
:1013B000A214B304C404D50448F0A216B306C406AC
:1013C000D50620F4A20CB31CC41CD51CA21AB30A67
:1013D000C40AD50AC601B501A40193010E94022DD9
:1013E0007B018C01C601B501A40193010E94022D6D
:1013F000CA01B90125962CAD3DAD4EAD5FAD259727
:101400000E94D72C9B01AC018701FF24EE248DA5FF
:101410009EA5AFA5B8A9A070B07057016801A82A11
:10142000B92ACA2ADB2AA216B306C406D50690F446
:10143000A20CB31CC41CD51CA214B304C404D50450
:1014400048F0A216B306C406D50620F4A20CB31CBD
:10145000C41CD51C6C96ECACFDAC0EAD1FAD6C97EE
:1014600068960FAC689704C0EE0CFF1C001F111F9C
:101470000A94D2F7E9AAFAAA0BAB1CABA21AB30AD8
:10148000C40AD50A320188249924B201A1016070EE
:10149000707029964CAF5DAF6EAF7FAF2997C601D4
:1014A000B501A40193010E94022D7B018C01C601AC
:1014B000B501A40193010E94022DCA01B901299628
:1014C0002CAD3DAD4EAD5FAD29970E94D72C9B0151
:1014D000AC018701FF24EE24A9A8BAA8CBA8DCA8F8
:1014E000C601AA27BB2757016801A82AB92ACA2A18
:1014F000DB2AA216B306C406D50690F4A20CB31CD0
:10150000C41CD51CA214B304C404D50448F0A2160C
:10151000B306C406D50620F4A20CB31CC41CD51C0B
:10152000A21AB30AC40AD50AC601B501A4019301DF
:101530000E94022D7B018C01C601B501A40193011B
:101540000E94022DCA01B90129962CAD3DAD4EADC8
:101550005FAD29970E94D72C9B01AC018701FF2426
:10156000EE2489A99AA9ABA9BCA9A070B070E82AF9
:10157000F92A0A2B1B2BE216F3060407150790F431
:10158000E20CF31C041D151DE214F30404051505FB
:1015900048F0E216F3060407150720F4E20CF31CEA
:1015A000041D151DE21AF30A040B150BD801C7011F
:1015B00009AC04C0B695A795979587950A94D2F77C
:1015C000898B9A8BAB8BBC8B1D8A1E8A1F8A188EC7
:1015D000282F3A894B895C896D890CC36A147B0476
:1015E0008C049D0408F409C300E0A01600E0B006D6
:1015F00001E0C00600E0D00688F41FEFA116B10498
:10160000C104D10439F030F028E0E22EF12C012D94
:10161000112D18C0EE24FF24870114C040E0A41649
:1016200040E0B40640E0C40641E0D40630F098E162
:10163000E92EF12C012D112D05C080E1E82EF12CB1
:10164000012D112DD601C5010E2C04C0B695A7950C
:10165000979587950A94D2F788599F4FDC012C9172
:1016600080E290E0A0E0B0E08E199F09A00BB10BE2
:10167000821B9109A109B1090097A105B10509F0E3
:101680004FC0A614B704C804D90458F06C96ECAC4B
:10169000FDAC0EAD1FAD6C97E214F3040405150507
:1016A00068F16C96ECACFDAC0EAD1FAD6C97E2181A
:1016B000F30804091509A40193012A193B094C09EF
:1016C0005D09AA24BB2465016C966CAD7DAD8EAD21
:1016D0009FAD6C976E157F058007910728F4B1E0E8
:1016E000AB2EB12CC12CD12CDA01C9018A199B096E
:1016F000AC09BD098DAB9EABAFABB8AFE98AFA8A36
:101700000B8B1C8B6DA87EA88FA898AC6D8A7E8AE7
:101710008F8A988E2E2D3A894B895C896DA96AC271
:1017200067968FAF6797A6019501082E04C0220F18
:10173000331F441F551F0A94D2F7A0E2AA2EA81AFD
:101740006696AFAE6697D201C10104C0B695A79563
:1017500097958795AA94D2F76C017D01C22AD32A66
:10176000E42AF52AC9A6DAA6EBA6FCA68201710135
:1017700067960FAC679704C0EE0CFF1C001F111F8B
:101780000A94D2F7EDA2FEA20FA318A76401530199
:1017900066960FAC669704C0D694C794B794A79486
:1017A0000A94D2F7A401930167960FAC679704C01F
:1017B000220F331F441F551F0A94D2F76C968CAD2D
:1017C0009DADAEADBFAD6C9766960FAC669704C08D
:1017D000B695A795979587950A94D2F73C014D0148
:1017E000622A732A842A952A69A27AA28BA29CA2D1
:1017F0006C96ECACFDAC0EAD1FAD6C9767960FAC64
:10180000679704C0EE0CFF1C001F111F0A94D2F74B
:10181000ED8EFE8E0F8F18A349A55AA56BA57CA54A
:101820003B0188249924607070702D964CAF5DAF99
:101830006EAF7FAF2D97C601B501A40193010E9441
:10184000022D7B018C01C601B501A40193010E9408
:10185000022DC901DA011C012D01C201B1012D9631
:101860002CAD3DAD4EAD5FAD2D970E94D72C9B01A9
:10187000AC018701FF24EE24A9A0BAA0CBA0DCA074
:10188000C601AA27BB2757016801A82AB92ACA2A74
:10189000DB2AA216B306C406D50600F50894210873
:1018A000310841085108E9A4FAA40BA51CA5AE0C07
:1018B000BF1CC01ED11EAE14BF04C006D10670F0FE
:1018C000A216B306C406D50648F4089421083108C8
:1018D00041085108AE0CBF1CC01ED11EA21AB30A8B
:1018E000C40AD50AC601B501A40193010E94022DC4
:1018F0007B018C01C601B501A40193010E94022D58
:10190000C901DA013C014D01C401B3012D962CAD92
:101910003DAD4EAD5FAD2D970E94D72C9B01AC0124
:101920008701FF24EE2489A19AA1ABA1BCA1A070DC
:10193000B07057016801A82AB92ACA2ADB2AA21660
:10194000B306C406D50600F508946108710881083D
:10195000910869A57AA58BA59CA5A60EB71EC81EE1
:10196000D91EA616B706C806D90670F0A216B30689
:10197000C406D50648F408946108710881089108E6
:10198000A60EB71EC81ED91ED601C501821B930B19
:10199000A40BB50B898F9A8FAB8FBC8FD101992780
:1019A000882784017301E82AF92A0A2B1B2B4FEFA1
:1019B000A42E4FEFB42EC12CD12CAE20BF20C022BC
:1019C000D1227801002711276DA07EA08FA098A4B6
:1019D0004FEF5FEF60E070E064227522862297226D
:1019E0008DA19EA1AFA1B8A5BD01882799276596B5
:1019F0006CAF7DAF8EAF9FAF6597C601B501A401F7
:101A000093010E94D72C61966CAF7DAF8EAF9FAFD4
:101A10006197C601B50165962CAD3DAD4EAD5FAD8C
:101A200065970E94D72C1B012C01C801B701A401A6
:101A300093010E94D72C5B016C01C801B701659628
:101A40002CAD3DAD4EAD5FAD65970E94D72C7B01AF
:101A50008C01A6019501220D331D441D551D619673
:101A60006CAC7DAC8EAC9FAC6197C401AA27BB2740
:101A7000280F391F4A1F5B1F2A153B054C055D05C2
:101A800048F4812C912CE1E0AE2EB12CE80CF91C2D
:101A90000A1D1B1DCA01AA27BB2757016801A80EF2
:101AA000B91ECA1EDB1EA9013327222761968CAD01
:101AB0009DADAEADBFAD6197A070B070280F391F5E
:101AC0004A1F5B1FE98CFA8C0B8D1C8DEA14FB04FA
:101AD0000C051D0570F0AE14BF04C006D10669F5F3
:101AE0006D8D7E8D8F8D98A1621773078407950782
:101AF00020F5DA01C9016DA07EA08FA098A48619F7
:101B00009709A809B909E9A4FAA40BA51CA5AE1860
:101B1000BF08C00AD10AEE24FF248701281739071D
:101B20004A075B0728F421E0E22EF12C012D112D4C
:101B3000AE18BF08C00AD10A02C0DA01C9016D8C13
:101B40007E8C8F8C98A0681A790A8A0A9B0A498D24
:101B50005A8D6B8D7C8D4A195B096C097D095A0180
:101B60006B012224332421016D8D7E8D8F8D98A1F0
:101B7000661577058805990528F481E0282E312C13
:101B8000412C512C86017501E218F308040915094E
:101B9000A801970166960FAC669704C0220F331F09
:101BA000441F551F0A94D2F7D401C30167960FACA6
:101BB000679704C0B695A795979587950A94D2F72D
:101BC000282B392B4A2B5B2B298B3A8B4B8B5C8B2D
:101BD00067960FAC679704C016950795F794E7943E
:101BE0000A94D2F7ED8AFE8A0F8B188F3A894B89B7
:101BF0005C896E2D7E898F89988DC55ADF4FE2E111
:101C00000C94402DA0E0B0E0E8E0FEE00C94242D20
:101C1000DC012B01FA019C91923008F439C1EB01EF
:101C20008881823008F433C1943069F4843009F03B
:101C30002FC111969C9111978981981709F428C199
:101C4000A0E6B0E025C1843009F421C18230A9F4B6
:101C5000923009F01DC19A01AD0188E0EA010990B6
:101C6000AE01E90109929E018150C1F7E20189812B
:101C700011969C918923818308C1923009F407C190
:101C800012962D903C901397EB018A819B811496BC
:101C9000AD90BD90CD90DC901797EC80FD800E81CB
:101CA0001F819101281B390BB90137FF04C066273A
:101CB0007727621B730B603271050CF061C012163E
:101CC00013066CF537014801062E04C096948794DC
:101CD000779467940A94D2F721E030E040E050E036
:101CE00004C0220F331F441F551F6A95D2F721509D
:101CF0003040404050402E213F21402351232115A8
:101D000031054105510521F021E030E040E050E08F
:101D100079018A01E628F728082919293CC0232BD4
:101D2000D1F1260E371E35014601062E04C09694C9
:101D30008794779467940A94D2F721E030E040E0EA
:101D400050E004C0220F331F441F551F6A95D2F77D
:101D500021503040404050402A213B214C215D2100
:101D6000211531054105510521F021E030E040E029
:101D700050E059016A01A628B728C828D9280BC005
:101D8000821593052CF01C01AA24BB24650103C015
:101D9000EE24FF24870111969C91D20111968C911B
:101DA000981709F445C0992339F0A80197012A1919
:101DB0003B094C095D0906C0A60195012E193F0992
:101DC000400B510B57FD08C01182338222822483BD
:101DD0003583468357831DC081E08183338222820D
:101DE00088279927DC01821B930BA40BB50B8483F6
:101DF0009583A683B7830DC0220F331F441F551F41
:101E0000248335834683578382819381019793830B
:101E100082832481358146815781DA01C901019786
:101E2000A109B1098F5F9F4FAF4FBF4328F30BC08C
:101E3000918333822282EA0CFB1C0C1D1D1DE4825F
:101E4000F5820683178383E0808324813581468170
:101E5000578157FF1AC0C901AA2797FDA095BA2F2D
:101E600081709070A070B070569547953795279502
:101E7000822B932BA42BB52B84839583A683B783C6
:101E800082819381019693838283DF0101C0D20115
:101E9000CD01CDB7DEB7E2E10C94402DA0E2B0E079
:101EA000E4E5FFE00C94302D69837A838B839C8377
:101EB0002D833E834F835887E9E0EE2EF12CEC0E04
:101EC000FD1ECE010196B7010E9452148E010F5ED5
:101ED0001F4FCE010596B8010E9452148A8991E0E5
:101EE00089278A8BC701B801AE01475E5F4F0E9408
:101EF000020E0E947D13A096E6E00C944C2DA0E209
:101F0000B0E0E5E8FFE00C94302D69837A838B83A1
:101F10009C832D833E834F835887F9E0EF2EF12C6D
:101F2000EC0EFD1ECE010196B7010E9452148E01E7
:101F30000F5E1F4FCE010596B8010E945214C701D3
:101F4000B801AE01475E5F4F0E94020E0E947D13F2
:101F5000A096E6E00C944C2DA0E2B0E0E2EBFFE0AE
:101F60000C94242D69837A838B839C832D833E83F9
:101F70004F835887CE010196BE01675F7F4F0E9455
:101F80005214CE010596BE016F5E7F4F0E9452141F
:101F90009985923088F089898230C8F0943019F49C
:101FA000823051F404C0843029F4923081F480E608
:101FB00090E0C6C0923049F420E09A858A8998134F
:101FC00021E02A87CE010996BBC0823049F420E087
:101FD0009A858A89981321E02A8BCE014196B0C058
:101FE0002D843E844F8458886D887E888F88988C95
:101FF000EE24FF248701AA24BB24650140E050E0C1
:1020000060E070E0E0E0F0E0C10181709070892B49
:10201000E9F0E60CF71C081D191D9A01AB012A0D09
:102020003B1D4C1D5D1D80E090E0A0E0B0E0E6149B
:10203000F7040805190520F481E090E0A0E0B0E085
:10204000BA01A901480F591F6A1F7B1FAA0CBB1CAC
:10205000CC1CDD1C97FE08C081E090E0A0E0B0E061
:10206000A82AB92ACA2ADB2A3196E032F10549F0BA
:10207000660C771C881C991C5694479437942794B7
:10208000C3CFFA85EA892B893C898B859C85280FEB
:10209000391F2E5F3F4F17C0CA0181709070892B86
:1020A00061F016950795F794E79480E090E0A0E042
:1020B000B0E8E82AF92A0A2B1B2B769567955795E5
:1020C00047952F5F3F4F77FDE7CF0CC0440F551F5B
:1020D000661F771F17FD4160EE0CFF1C001F111FCC
:1020E00021503040403090E0590790E0690790E47B
:1020F000790760F32B8F3C8FDB01CA018F779070DB
:10210000A070B07080349105A105B10561F447FD60
:102110000AC0E114F1040105110529F0405C5F4F8C
:102120006F4F7F4F40781A8EFE1711F081E08A8F33
:102130004D8F5E8F6F8F78A383E0898FCE01499694
:102140000E947D13A096E2E10C94402DA8E1B0E03E
:10215000ECEAF0E10C942C2D69837A838B839C83C9
:102160002D833E834F835887B9E0EB2EF12CEC0E84
:10217000FD1ECE010196B7010E9452148E010F5E22
:102180001F4FCE010596B8010E94521429852230B6
:1021900008F47EC03989323010F4B8017CC08A85D9
:1021A0009A8989278A87243011F0223031F4231745
:1021B00009F06EC060E670E06EC0343039F41D8600
:1021C0001E861F86188A1C861B8604C0323021F4A6
:1021D00084E08987B7015FC02B853C858B899C890A
:1021E000281B390B3C872B87ED84FE840F851889CB
:1021F000AD88BE88CF88D88CEA14FB040C051D0579
:1022000040F4EE0CFF1C001F111F215030403C8792
:102210002B8720E030E040E050E080E090E0A0E05C
:10222000B0E460E070E0EA14FB040C051D0540F02A
:10223000282B392B4A2B5B2BEA18FB080C091D09AC
:10224000B695A79597958795EE0CFF1C001F111F5B
:102250006F5F7F4F6F31710531F7DA01C9018F77F9
:102260009070A070B07080349105A105B10561F443
:1022700027FD0AC0E114F1040105110529F0205CD5
:102280003F4F4F4F5F4F20782D873E874F87588BAA
:10229000BE01675F7F4FCB010E947D136896EAE025
:1022A0000C94482DA8E1B0E0E8E5F1E10C94302D64
:1022B00069837A838B839C832D833E834F835887E6
:1022C00089E0E82EF12CEC0EFD1ECE010196B7013F
:1022D0000E9452148E010F5E1F4FCE010596B80169
:1022E0000E9452148985823040F08989823028F01A
:1022F000C701B8010E94CA1401C08FEF6896E6E0DA
:102300000C944C2DA8E1B0E0E8E8F1E10C94302DFC
:1023100069837A838B839C832D833E834F83588785
:1023200089E0E82EF12CEC0EFD1ECE010196B701DE
:102330000E9452148E010F5E1F4FCE010596B80108
:102340000E9452148985823040F08989823028F0B9
:10235000C701B8010E94CA1401C08FEF6896E6E079
:102360000C944C2DA8E1B0E0E8EBF1E10C94302D99
:1023700069837A838B839C832D833E834F83588725
:1023800089E0E82EF12CEC0EFD1ECE010196B7017E
:102390000E9452148E010F5E1F4FCE010596B801A8
:1023A0000E9452148985823040F08989823028F059
:1023B000C701B8010E94CA1401C081E06896E6E036
:1023C0000C944C2DACE0B0E0E8EEF1E10C94342D2F
:1023D00069837A838B839C83CE010196BE016B5FF8
:1023E0007F4F0E9452148D81823061F1823050F112
:1023F000843021F48E81882351F12EC02F813885BD
:1024000037FD20C06E812F3131051CF06623F9F0B5
:1024100023C08EE190E0821B930B29853A854B8582
:102420005C8504C056954795379527958A95D2F7D0
:102430006623B1F050954095309521953F4F4F4F11
:102440005F4F0EC020E030E040E050E009C02FEFC9
:102450003FEF4FEF5FE704C020E030E040E050E89E
:10246000B901CA012C96E2E00C94502DA8E0B0E02E
:10247000ECE3F2E10C942C2D7B018C0161157105CC
:102480008105910519F482E0898360C083E0898326
:102490008EE1C82ED12CDC82CB82ED82FE820F83AE
:1024A0001887C801B7010E942E13FC013197F7FF6E
:1024B0003BC0222733272E1B3F0B57016801022EFA
:1024C00004C0D694C794B794A7940A94D2F740E076
:1024D00050E060E070E081E090E0A0E0B0E004C097
:1024E000880F991FAA1FBB1F2A95D2F70197A10930
:1024F000B1098E219F21A023B1230097A105B10529
:1025000021F041E050E060E070E04A295B296C294D
:102510007D294D835E836F8378878EE190E08E1BEB
:102520009F0B9C838B8312C0309781F00E2E04C0CA
:10253000EE0CFF1C001F111F0A94D2F7ED82FE82E1
:102540000F831887CE1ADF0ADC82CB821A82CE0173
:1025500001960E947D132896EAE00C94482DEF9294
:10256000FF920F93DF93CF93CDB7DEB760970FB68F
:10257000F894DEBF0FBECDBFA82F002309F461C0C1
:102580007E010894E11CF11C88E0F70111928A9504
:10259000E9F729833A834B835C836D837E83AF8322
:1025A000988780E2801BE82FFF27E7FDF09549819F
:1025B0005A816B817C81181684F019861A861B86D5
:1025C0001C86882799278E1B9F0B04C0440F551F1C
:1025D000661F771F8A95D2F728C0202F332727FD43
:1025E0003095DB01CA01022E04C0880F991FAA1F73
:1025F000BB1F0A94D2F789879A87AB87BC8704C030
:102600007695679557954795EA95D2F78D819E8186
:10261000AF81B88504C0880F991FAA1FBB1F2A95D8
:10262000D2F7482B592B6A2B7B2B4D875E876F8700
:10263000788B29853A854B855C856D857E85AF8550
:1026400098898A2F60960FB6F894DEBF0FBECDBF73
:10265000CF91DF910F91FF90EF900895EF92FF924D
:102660000F931F937B018C0180E0E81680E0F80651
:1026700081E0080780E0180788F48FEFE816F1047E
:102680000105110531F028F088E090E0A0E0B0E00D
:1026900017C080E090E0A0E0B0E012C080E0E81653
:1026A00080E0F80680E0080781E0180728F088E15C
:1026B00090E0A0E0B0E004C080E190E0A0E0B0E0F5
:1026C00020E230E040E050E0281B390B4A0B5B0B66
:1026D00004C016950795F794E7948A95D2F7F70109
:1026E000E859FF4F8081281B310941095109C9016F
:1026F0001F910F91FF90EF900895DF92EF92FF925C
:102700000F931F93FC01E480F58006811781D1802F
:102710008081823048F480E090E0A0E1B0E0E82AD7
:10272000F92A0A2B1B2BA5C0843009F49FC08230E4
:1027300021F4EE24FF24870105C0E114F104010512
:10274000110519F4E0E0F0E096C0628173819FEF1B
:10275000623879070CF05BC022E83FEF261B370B8D
:102760002A3131052CF020E030E040E050E02AC072
:10277000B801A701022E04C0769567955795479535
:102780000A94D2F781E090E0A0E0B0E004C0880FA6
:10279000991FAA1FBB1F2A95D2F70197A109B1095A
:1027A0008E219F21A023B1230097A105B10521F01F
:1027B00081E090E0A0E0B0E09A01AB01282B392B3A
:1027C0004A2B5B2BDA01C9018F779070A070B07033
:1027D00080349105A105B10539F427FF09C0205CBB
:1027E0003F4F4F4F5F4F04C0215C3F4F4F4F5F4FF4
:1027F000E0E0F0E02030A0E03A07A0E04A07A0E4E3
:102800005A0710F0E1E0F0E079018A0127C0603852
:10281000710564F5FB01E158FF4FD801C7018F77BF
:102820009070A070B07080349105A105B10539F4A5
:10283000E7FE0DC080E490E0A0E0B0E004C08FE3CC
:1028400090E0A0E0B0E0E80EF91E0A1F1B1F17FF82
:1028500005C016950795F794E794319687E016958D
:102860000795F794E7948A95D1F705C0EE24FF24E5
:102870008701EFEFF0E06E2F679566276795902F41
:102880009F77D794DD24D7948E2F8695492F462B9A
:10289000582F5D29B701CA011F910F91FF90EF904A
:1028A000DF900895FC01DB01408151812281622F7C
:1028B0006F7770E0221F2227221F9381892F880FB4
:1028C000822B282F30E0991F9927991F11969C93EE
:1028D000119721153105A9F54115510561057105BE
:1028E00011F482E037C082E89FEF13969C938E9399
:1028F00012979A01AB0167E0220F331F441F551F47
:102900006A95D1F783E08C930DC0220F331F441FCB
:10291000551F12968D919C911397019713969C9336
:102920008E931297203080E0380780E0480780E4DB
:10293000580758F314962D933D934D935C93179736
:1029400008952F3F310579F4411551056105710551
:1029500019F484E08C93089564FF03C081E08C93A4
:1029600012C01C9210C02F57304013963C932E93E8
:10297000129783E08C9387E0440F551F661F771FE3
:102980008A95D1F7706414964D935D936D937C9303
:10299000179708951F93DC01FB019C91923008F476
:1029A00047C08081823008F443C0943051F41196BE
:1029B0001C91843099F58181682F70E0611B710949
:1029C0003FC0843021F0923031F48230B9F18181FE
:1029D000882389F12DC011961C9111978230F1F056
:1029E00081811817D9F412962D913C911397828109
:1029F00093818217930794F028173907BCF0149637
:102A00008D919D910D90BC91A02D248135814681A1
:102A10005781281739074A075B0718F4112341F03B
:102A20000AC082179307A407B50740F4112319F0D1
:102A300061E070E005C06FEF7FEF02C060E070E022
:102A4000CB011F9108950F931F93DF93CF93CDB7C1
:102A5000DEB727970FB6F894DEBF0FBECDBF6983F0
:102A60007A838B839C834D83E7E3F0E088E0808367
:102A70008D81282F30E03F832E838E819F8181308E
:102A8000910531F0EE81FF81E230F105D1F167C0AF
:102A90000CE510E069817A818B819C8120E030E037
:102AA00048EC52E40E94A610DC01CB01BC01CD0130
:102AB00020E030E040E853EC0E94AC0FDC01CB0199
:102AC000BC01CD0120E030E040E853E40E947F0FDC
:102AD000DC01CB01BC01CD0120E030E040E85FE348
:102AE0000E944E0FDC01CB01BC01CD010E944900C8
:102AF000DC01CB01F8018083E3E5F0E089E7808326
:102B00002EC00CE510E069817A818B819C8120E0E8
:102B100030E040E853EC0E94AC0FDC01CB01BC017B
:102B2000CD0120E030E040E853E40E947F0FDC015B
:102B3000CB01BC01CD0120E030E040E85FE30E9422
:102B40004E0FDC01CB01BC01CD010E944900DC012C
:102B5000CB01F8018083E3E5F0E089E680832796E6
:102B60000FB6F894DEBF0FBECDBFCF91DF911F919E
:102B70000F9108950F931F93DF93CF93CDB7DEB7D7
:102B800027970FB6F894DEBF0FBECDBF69837A8357
:102B90008B839C834D83E7E3F0E088E080838D8125
:102BA000282F30E03F832E838E819F8181309105D5
:102BB00031F0EE81FF81E230F10581F153C00CE587
:102BC00010E069817A818B819C8120E030E04FE7C1
:102BD00053E40E94AC0FDC01CB01BC01CD0120E02D
:102BE00030E048EC52EC0E94A610DC01CB01BC01A5
:102BF000CD0120E030E04FE753E40E947F0FDC017D
:102C0000CB01BC01CD010E944900DC01CB01F801E0
:102C10008083E3E5F0E081E7808324C00CE510E0E9
:102C200069817A818B819C8120E030E04FE753E419
:102C30000E94AC0FDC01CB01BC01CD0120E030E0F3
:102C400048EC52E40E94A610DC01CB01BC01CD018E
:102C50000E944900DC01CB01F8018083E3E5F0E04C
:102C600081E6808327960FB6F894DEBF0FBECDBFF6
:102C7000CF91DF911F910F910895DF93CF93CDB73F
:102C8000DEB7E2E2F0E082E08083A1E2B0E0E1E2E0
:102C9000F0E080818E7F8C93A1E2B0E0E1E2F0E091
:102CA00080818D7F8C93E0E2F0E080E28083E6E536
:102CB000F0E0808184608083CF91DF910895DF937D
:102CC000CF9300D00F92CDB7DEB769837A838B8321
:102CD000E2E2F0E09A818B81892B8083A1E2B0E06F
:102CE000E1E2F0E080818E7F8C93A1E2B0E0E1E24E
:102CF000F0E080818D7F8C93E0E2F0E08981808339
:102D0000E6E5F0E08081846080830F900F900F9063
:102D1000CF91DF910895DF93CF930F92CDB7DEB7B8
:102D20001982E6E5F0E0808180628083E6E5F0E0EC
:102D3000808180688083E6E5F0E080818078882368
:102D4000D1F3E1E2F0E08081882F90E0887F9070FD
:102D50008830910511F481E0898389810F90CF91AA
:102D6000DF910895DF93CF930F92CDB7DEB719822D
:102D7000E6E5F0E0808180628083E6E5F0E0808136
:102D800080688083E6E5F0E0808180788823D1F355
:102D9000E1E2F0E08081882F90E0887F90708031C0
:102DA000910511F481E0898389810F90CF91DF91A2
:102DB0000895DF93CF93CDB7DEB7E6E5F0E08081ED
:102DC00080618083E6E5F0E0808180688083CF9138
:102DD000DF910895DF93CF9300D0CDB7DEB78A831C
:102DE0001982E3E2F0E08A81882F90E0880F991F32
:102DF00081608083E6E5F0E080818F7D8083E6E579
:102E0000F0E0808180688083E6E5F0E08081807872
:102E10008823D1F3E1E2F0E08081882F90E0887F81
:102E200090708034910511F481E0898389810F903D
:102E30000F90CF91DF910895DF93CF9300D0CDB75E
:102E4000DEB78A831982E3E2F0E08A81880F80830B
:102E5000E6E5F0E080818F7D8083E6E5F0E080812B
:102E600080688083E6E5F0E0808180788823D1F374
:102E7000E1E2F0E08081882F90E0887F90708831D7
:102E8000910511F481E0898389810F900F90CF9192
:102E9000DF910895DF93CF9300D0CDB7DEB78A835B
:102EA0001982E3E2F0E08A818083E6E5F0E0808148
:102EB00080688083E6E5F0E0808180788823D1F324
:102EC000E1E2F0E08081882F90E0887F9070883286
:102ED000910511F481E0898389810F900F90CF9142
:102EE000DF910895DF93CF9300D00F92CDB7DEB777
:102EF0009B838A831982E6E5F0E080818068808385
:102F0000E6E5F0E080818F7B8083E6E5F0E080817C
:102F100080788823D1F3E1E2F0E08081882F90E08F
:102F2000887F90708835910541F481E08983E3E2E0
:102F3000F0E08081EA81FB81808389810F900F908E
:102F40000F90CF91DF910895DF93CF9300D000D001
:102F5000CDB7DEB79C838B831A821982E6E5F0E059
:102F6000808180688083E6E5F0E0808180648083F2
:102F7000E6E5F0E0808180788823D1F3E1E2F0E0BB
:102F80008081882F90E0887F90708035910571F462
:102F900081E08A838981282F30E08B819C81DC014C
:102FA000A20FB31FE3E2F0E080818C938A810F903F
:102FB0000F900F900F90CF91DF910895DF93CF93F3
:102FC00000D0CDB7DEB79A838983E2E2F0E0898151
:102FD000882F90E0880F991F982F8A81892B8083F2
:102FE000E6E5F0E08081846080830F900F90CF91C0
:102FF000DF910895DF93CF930F92CDB7DEB719829B
:10300000E6E5F0E0808180648083E6E5F0E08081A1
:1030100080688083E6E5F0E0808180788823D1F3C2
:10302000E1E2F0E08081882F90E0887F9070883A1C
:10303000910511F481E0898389810F90CF91DF910F
:103040000895DF93CF930F92CDB7DEB71982E6E5EF
:10305000F0E0808180648083E6E5F0E08081806834
:103060008083E6E5F0E0808180788823D1F3E1E297
:10307000F0E08081882F90E0887F90708036910505
:1030800011F481E0898389810F90CF91DF910895B8
:10309000DF93CF9300D0CDB7DEB78A831982E3E206
:1030A000F0E08A818083E6E5F0E0808180688083BB
:1030B000E6E5F0E0808180788823D1F3E1E2F0E07A
:1030C0008081882F90E0887F9070803C910511F47A
:1030D00081E0898389810F900F90CF91DF910895CE
:1030E000DF93CF9300D00F92CDB7DEB79B838A8357
:1030F0001982E6E5F0E0808180688083E6E5F0E013
:10310000808180788823D1F3E1E2F0E08081882F0C
:1031100090E0887F90708038910541F481E0898348
:10312000E3E2F0E08081EA81FB81808389810F9076
:103130000F900F90CF91DF910895DF93CF93CDB78C
:10314000DEB728970FB6F894DEBF0FBECDBF8A83D7
:103150006B834C8381E089838A81843008F0F1C0DD
:103160008B81883008F0EDC08C81813009F06FC010
:103170008A81282F30E038872F838F81988581308E
:10318000910549F12F813885223031052CF48F814A
:103190009885009761F0D6C02F813885223031059F
:1031A00071F18F81988583309105E9F1CBC0ABE354
:1031B000B0E0EBE3F0E08081482F8B81282F30E0F6
:1031C00081E090E0022E02C0880F991F0A94E2F776
:1031D000842B8C93B7C0A8E3B0E0E8E3F0E08081F3
:1031E000482F8B81282F30E081E090E0022E02C032
:1031F000880F991F0A94E2F7842B8C93A3C0A5E350
:10320000B0E0E5E3F0E08081482F8B81282F30E0AB
:1032100081E090E0022E02C0880F991F0A94E2F725
:10322000842B8C938FC0A2E3B0E0E2E3F0E08081D6
:10323000482F8B81282F30E081E090E0022E02C0E1
:10324000880F991F0A94E2F7842B8C937BC08C81A2
:10325000882309F074C08A81282F30E03E832D83B3
:103260008D819E818130910559F12D813E812230E1
:1032700031052CF48D819E81009769F063C02D810A
:103280003E812230310589F18D819E818330910507
:1032900009F440C057C0ABE3B0E0EBE3F0E080815D
:1032A000482F8B81282F30E081E090E0022E02C071
:1032B000880F991F0A94E2F7809584238C9342C06B
:1032C000A8E3B0E0E8E3F0E08081482F8B81282F6D
:1032D00030E081E090E0022E02C0880F991F0A942E
:1032E000E2F7809584238C932DC0A5E3B0E0E5E35D
:1032F000F0E08081482F8B81282F30E081E090E042
:10330000022E02C0880F991F0A94E2F78095842349
:103310008C9318C0A2E3B0E0E2E3F0E08081482F94
:103320008B81282F30E081E090E0022E02C0880FD0
:10333000991F0A94E2F7809584238C9303C0198225
:1033400001C01982898128960FB6F894DEBF0FBE9E
:10335000CDBFCF91DF910895DF93CF93CDB7DEB787
:1033600028970FB6F894DEBF0FBECDBF8A836B835C
:103370004C8381E089838A81843008F0F1C08B819D
:10338000883008F0EDC08C81813009F074C08A81EA
:10339000282F30E038872F838F81988581309105E1
:1033A00059F12F813885223031052CF48F81988591
:1033B000009769F0D6C02F8138852230310589F118
:1033C0008F8198858330910509F440C0CAC0ABE372
:1033D000B0E0EBE3F0E08081482F8B81282F30E0D4
:1033E00081E090E0022E02C0880F991F0A94E2F754
:1033F000809584238C93B5C0A8E3B0E0E8E3F0E0C7
:103400008081482F8B81282F30E081E090E0022ED0
:1034100002C0880F991F0A94E2F7809584238C9349
:10342000A0C0A5E3B0E0E5E3F0E08081482F8B8108
:10343000282F30E081E090E0022E02C0880F991F13
:103440000A94E2F7809584238C938BC0A2E3B0E0CA
:10345000E2E3F0E08081482F8B81282F30E081E08B
:1034600090E0022E02C0880F991F0A94E2F780951F
:1034700084238C9376C08C81882309F06FC08A8165
:10348000282F30E03E832D838D819E8181309105F0
:1034900049F12D813E81223031052CF48D819E81B0
:1034A000009761F05EC02D813E812230310571F1BF
:1034B0008D819E8183309105E9F153C0ABE3B0E08B
:1034C000EBE3F0E08081482F8B81282F30E081E012
:1034D00090E0022E02C0880F991F0A94E2F7842B15
:1034E0008C933FC0A8E3B0E0E8E3F0E08081482F90
:1034F0008B81282F30E081E090E0022E02C0880FFF
:10350000991F0A94E2F7842B8C932BC0A5E3B0E0BB
:10351000E5E3F0E08081482F8B81282F30E081E0C7
:1035200090E0022E02C0880F991F0A94E2F7842BC4
:103530008C9317C0A2E3B0E0E2E3F0E08081482F73
:103540008B81282F30E081E090E0022E02C0880FAE
:10355000991F0A94E2F7842B8C9303C0198201C04F
:103560001982898128960FB6F894DEBF0FBECDBFB1
:10357000CF91DF910895DF93CF93CDB7DEB7279733
:103580000FB6F894DEBF0FBECDBF8A836B835D8319
:103590004C8381E089838A81843008F075C08B81F7
:1035A000883008F071C08A81282F30E03F832E8355
:1035B0004E815F814130510559F18E819F8182306A
:1035C000910534F42E813F812115310569F05DC0EC
:1035D0004E815F814230510579F18E819F81833028
:1035E000910509F43DC051C0E9E3F0E08081282F46
:1035F00030E08B81882F90E0A90102C05595479556
:103600008A95E2F7CA018170EC81FD8180833DC01B
:10361000E6E3F0E08081282F30E08B81882F90E076
:10362000A90102C0559547958A95E2F7CA018170B4
:10363000EC81FD81808329C0E3E3F0E08081282FC5
:1036400030E08B81882F90E0A90102C05595479505
:103650008A95E2F7CA018170EC81FD81808315C0F3
:10366000E0E3F0E08081282F30E08B81882F90E02C
:10367000A90102C0559547958A95E2F7CA01817064
:10368000EC81FD81808301C01982898127960FB664
:10369000F894DEBF0FBECDBFCF91DF910895DF93C9
:1036A000CF93CDB7DEB728970FB6F894DEBF0FBE25
:1036B000CDBF8A836B834C8381E089838A81843088
:1036C00008F0F2C08B81883008F0EEC08C81813028
:1036D00009F06FC08A81282F30E038872F838F81CF
:1036E00098858130910549F12F8138852230310547
:1036F0002CF48F819885009761F0D7C02F81388591
:103700002230310571F18F81988583309105E9F17F
:10371000CCC0AAE3B0E0EAE3F0E08081482F8B81DF
:10372000282F30E081E090E0022E02C0880F991F20
:103730000A94E2F7842B8C93B8C0A7E3B0E0E7E3E8
:10374000F0E08081482F8B81282F30E081E090E0ED
:10375000022E02C0880F991F0A94E2F7842B8C93E3
:10376000A4C0A4E3B0E0E4E3F0E08081482F8B81C3
:10377000282F30E081E090E0022E02C0880F991FD0
:103780000A94E2F7842B8C9390C0A1E3B0E0E1E3CC
:10379000F0E08081482F8B81282F30E081E090E09D
:1037A000022E02C0880F991F0A94E2F7842B8C9393
:1037B0007CC08C81882309F074C08A81282F30E076
:1037C0003E832D838D819E818130910559F12D811C
:1037D0003E81223031052CF48D819E81009769F065
:1037E00064C02D813E812230310589F18D819E8119
:1037F0008330910509F440C058C0AAE3B0E0EAE381
:10380000F0E08081482F8B81282F30E081E090E02C
:10381000022E02C0880F991F0A94E2F78095842334
:103820008C9343C0A7E3B0E0E7E3F0E08081482F4A
:103830008B81282F30E081E090E0022E02C0880FBB
:10384000991F0A94E2F7809584238C932EC0A4E3F9
:10385000B0E0E4E3F0E08081482F8B81282F30E056
:1038600081E090E0022E02C0880F991F0A94E2F7CF
:10387000809584238C9319C0A1E3B0E0E1E3F0E0EC
:103880008081482F8B81282F30E081E090E0022E4C
:1038900002C0880F991F0A94E2F7809584238C93C5
:1038A00004C081E0898301C01982898128960FB6FE
:1038B000F894DEBF0FBECDBFCF91DF910895DF93A7
:1038C000CF9300D000D00F92CDB7DEB78A836B8341
:1038D00081E089838A818430A8F58A81282F30E0AD
:1038E0003D832C838C819D8181309105D1F02C8189
:1038F0003D81223031052CF48C819D81009761F04F
:103900001FC02C813D812230310581F08C819D8149
:103910008330910581F014C0EBE3F0E08B8180836C
:1039200012C0E8E3F0E08B8180830DC0E5E3F0E0B6
:103930008B81808308C0E2E3F0E08B81808303C049
:10394000198201C0198289810F900F900F900F90FA
:103950000F90CF91DF910895DF93CF9300D000D0E7
:103960000F92CDB7DEB78A836B8381E089838A812A
:103970008430A8F58A81282F30E03D832C838C8108
:103980009D8181309105D1F02C813D81223031051E
:103990002CF48C819D81009761F01FC02C813D81AA
:1039A0002230310581F08C819D818330910581F039
:1039B00014C0EBE3F0E08B81808312C0E8E3F0E019
:1039C0008B8180830DC0E5E3F0E08B81808308C0AC
:1039D000E2E3F0E08B81808303C0198201C0198289
:1039E00089810F900F900F900F900F90CF91DF91E2
:1039F0000895DF93CF9300D000D00F92CDB7DEB7FC
:103A00008A836B8381E089838A818430C8F58A81C7
:103A1000282F30E03D832C838C819D81813091055E
:103A2000D9F02C813D81223031052CF48C819D818F
:103A3000009761F023C02C813D812230310591F047
:103A40008C819D818330910599F018C0EBE3F0E003
:103A50008B818095808315C0E8E3F0E08B818095B1
:103A600080830FC0E5E3F0E08B818095808309C0FF
:103A7000E2E3F0E08B818095808303C0198201C06E
:103A8000198289810F900F900F900F900F90CF9116
:103A9000DF910895DF93CF93CDB7DEB7E7E2F0E093
:103AA00080E68083E6E2F0E087E88083CF91DF91D3
:103AB0000895DF93CF9300D00F92CDB7DEB78B83FD
:103AC0001A821982A7E2B0E0E7E2F0E08081807E0E
:103AD0008C93A7E2B0E0E7E2F0E090818B81892B44
:103AE0008C93A6E2B0E0E6E2F0E0808180648C9303
:103AF000E6E2F0E0808182958F70882F90E08170FF
:103B000090700097A9F3E5E2F0E08081882F90E0C3
:103B1000880F991F880F991F9A838983A6E2B0E0C6
:103B2000E6E2F0E0808180618C9389819A810F9038
:103B30000F900F90CF91DF910895DF93CF9300D036
:103B400000D000D0CDB7DEB79E838D831C82ED817F
:103B5000FE8180819AE0692F0E94F62C8295807FF9
:103B60008B83ED81FE8180819AE0692F0E94F62C83
:103B7000892F982F8B81892B8B83ED81FE81818109
:103B80009AE0692F0E94F62C8295807F8A83ED81CE
:103B9000FE8181819AE0692F0E94F62C892F982F4F
:103BA0008A81892B8A83ED81FE8182819AE0692F47
:103BB0000E94F62C8295807F8983ED81FE8184812D
:103BC000882389F4ED81FE812481ED81FE8182814B
:103BD0009AE0692F0E94F62C892F922F982B8981C9
:103BE000892B898315C0ED81FE819481ED81FE8151
:103BF0008381292F282BED81FE8182819AE0692F14
:103C00000E94F62C892F922F982B8981892B8983EA
:103C10000E948B168C838C81813029F588E60E9466
:103C20001C178C838C818130F1F480E00E944A174C
:103C30008C838C818130B9F48B810E944A178C83EC
:103C40008C81813081F48A810E944A178C838C8117
:103C5000813049F489810E944A178C838C8181309C
:103C600011F40E94D9168C8126960FB6F894DEBF07
:103C70000FBECDBFCF91DF910895DF93CF9300D0DA
:103C800000D000D0CDB7DEB79E838D831C82ED813E
:103C9000FE8181819AE0692F0E94F62C8295807FB7
:103CA0008B83ED81FE8181819AE0692F0E94F62C41
:103CB000892F982F8B81892B8B83ED81FE818281C7
:103CC0009AE0692F0E94F62C8295807F8A83ED818D
:103CD000FE8182819AE0692F0E94F62C892F982F0D
:103CE0008A81892B8A83ED81FE8183819AE0692F05
:103CF0000E94F62C8295807F8983ED81FE818381ED
:103D00009AE0692F0E94F62C892F982F8981892BA0
:103D100089830E948B168C838C81813071F588E6B3
:103D20000E941C178C838C81813039F583E00E94BE
:103D30004A178C838C81813001F5ED81FE81808171
:103D40000E944A178C838C818130B9F48B810E9448
:103D50004A178C838C81813081F48A810E944A17B2
:103D60008C838C81813049F489810E944A178C832D
:103D70008C81813011F40E94D9168C8126960FB661
:103D8000F894DEBF0FBECDBFCF91DF910895DF93D2
:103D9000CF9300D000D000D0CDB7DEB79E838D8307
:103DA000198283E0FE013296DF01982F1D929A95C9
:103DB000E9F70E948B16898389818130B9F588E6FD
:103DC0000E941C1789838981813081F580E00E94DF
:103DD0004A1789838981813049F50E94B216898307
:103DE0008981813019F588E60E94EA1689838981E4
:103DF0008130E1F4CE0102960E94A4178983898163
:103E00008130A1F4CE01029601960E94A417898305
:103E10008981813059F4CE01029602960E94721770
:103E200089838981813011F40E94D9168D819E8108
:103E30009E012E5F3F4FB9010E94381F898126964F
:103E40000FB6F894DEBF0FBECDBFCF91DF910895BE
:103E5000DF93CF9300D00F92CDB7DEB79B838A83D9
:103E6000198289810F900F900F90CF91DF91089563
:103E7000DF93CF9300D000D0CDB7DEB79A8389838C
:103E80007C836B83EB81FC81808182958F70882F8E
:103E900090E09C01220F331FC901880F991F880FE2
:103EA000991F820F931FE981FA818083E981FA814A
:103EB0009081EB81FC8180818F70890FE981FA818B
:103EC00080838B819C81FC013196808182958F70EB
:103ED000882F90E09C01220F331FC901880F991F82
:103EE000880F991F820F931FE981FA818183E981ED
:103EF000FA8121818B819C81FC01319680818F70B8
:103F0000820FE981FA818183E981FA811482E98152
:103F1000FA818481803449F5E981FA8113828B81A9
:103F20009C81FC013296808182958F70882F90E071
:103F3000817090709C01220F331FC901880F991F57
:103F4000880F991F820F931FE981FA818283E9818B
:103F5000FA8122818B819C81FC01329680818F7055
:103F6000820FE981FA81828325C08B819C81FC01CB
:103F70003296808182958F70882F90E08370907048
:103F80009C01220F331FC901880F991F880F991FA9
:103F9000820F931FE981FA818283E981FA8122816C
:103FA0008B819C81FC01329680818F70820FE98128
:103FB000FA8182830F900F900F900F90CF91DF9135
:103FC0000895DF93CF930F92CDB7DEB7898380E05A
:103FD000698140E00E944F1B0F90CF91DF910895BF
:103FE000AF92BF92CF92DF92EF92FF920F931F9307
:103FF000DF93CF93CDB7DEB728970FB6F894DEBF27
:104000000FBECDBF88871F821E8280E090E0A0E0B7
:10401000B0E08A839B83AC83BD83198288850E942C
:10402000591D9F838E832E813F81C901880F991F5F
:10403000880F991F820F931FCC01A0E0B0E0BC0154
:10404000CD010E943612DC01CB01BC01CD0120E084
:1040500030E040E854E40E94A610DC01CB018A83E2
:104060009B83AC83BD8300D000D0EDB7FEB7319603
:104070002A813B814C815D8180E090E0A0E0B0E04E
:1040800080839183A283B383CA01B90120E030E029
:1040900040E050E00F2EF0E0EF2EF0E0FF2EF0EACF
:1040A0000F2FF0E41F2FF02D0F2EF0E0AF2EF0E0D9
:1040B000BF2EF8ECCF2EF2E4DF2EF02D0E947F20F1
:1040C0000F900F900F900F90DC01CB01BC01CD0140
:1040D0000E944900DC01CB018983898128960FB6B3
:1040E000F894DEBF0FBECDBFCF91DF911F910F912E
:1040F000FF90EF90DF90CF90BF90AF900895AF9278
:10410000BF92CF92DF92EF92FF920F931F93DF93B4
:10411000CF93CDB7DEB760970FB6F894DEBF0FBE72
:10412000CDBF69837A838B839C832D833E834F83AA
:104130005887E986FA860B871C87AD86BE86CF86B0
:10414000D88A69817A818B819C812D813E814F81C2
:1041500058850E944E0FDC01CB017C018D016D8DD5
:104160007E8D8F8D98A12D853E854F8558890E9423
:104170004E0FDC01CB019C01AD01C801B7010E94CB
:10418000AC0FDC01CB017C018D0169857A858B85C3
:104190009C852D813E814F8158850E944E0FDC0108
:1041A000CB019C01AD01C801B7010E94A610DC0142
:1041B000CB01BC01CD012D853E854F8558890E94DC
:1041C0007F0FDC01CB01BC01CD0160960FB6F894E6
:1041D000DEBF0FBECDBFCF91DF911F910F91FF903A
:1041E000EF90DF90CF90BF90AF900895DF93CF9383
:1041F000CDB7DEB7E9970FB6F894DEBF0FBECDBFDF
:1042000081E089AF80E065E041E00E944F1B80E0E3
:1042100066E041E00E944F1B80E067E041E00E94C1
:104220004F1B83E067E041E00E944F1B83E066E0A4
:1042300041E00E944F1B83E065E041E00E944F1B7C
:1042400083E064E041E00E944F1B80E090E0A8E43E
:10425000B2E48DAB9EABAFABB8AF6DA97EA98FA911
:1042600098AD20E030E04AEF54E40E94AC0FDC014E
:10427000CB0189AB9AABABABBCAB69A97AA98BA9D3
:104280009CA920E030E040E85FE30E94B21188235F
:104290002CF481E090E098AB8FA73FC069A97AA980
:1042A0008BA99CA920E03FEF4FE757E40E945211F1
:1042B00018164CF56DA97EA98FA998AD20E030E0C5
:1042C00040E251E40E94AC0FDC01CB01BC01CD0106
:1042D0000E944900DC01CB0198AB8FA70FC088EC8E
:1042E00090E09EA78DA78DA59EA50197F1F79EA7AB
:1042F0008DA78FA598A9019798AB8FA78FA598A98F
:10430000009769F714C069A97AA98BA99CA90E9492
:104310004900DC01CB0198AB8FA78FA598A99CA77A
:104320008BA78BA59CA50197F1F79CA78BA783E092
:1043300063E041E00E944F1B83E062E041E00E94A5
:104340004F1B83E061E041E00E944F1B83E060E08F
:1043500041E00E944F1B88E30E94D62680E090E057
:10436000A0E8BFE38FA398A7A9A7BAA76FA178A5D4
:1043700089A59AA520E030E04AEF54E40E94AC0FF2
:10438000DC01CB018BA39CA3ADA3BEA36BA17CA13D
:104390008DA19EA120E030E040E85FE30E94B211D1
:1043A00088232CF481E090E09AA389A33FC06BA1FD
:1043B0007CA18DA19EA120E03FEF4FE757E40E9432
:1043C000521118164CF56FA178A589A59AA520E081
:1043D00030E040E251E40E94AC0FDC01CB01BC01B3
:1043E000CD010E944900DC01CB019AA389A30FC033
:1043F00088EC90E098A38F8F8F8D98A10197F1F7AB
:1044000098A38F8F89A19AA101979AA389A389A1C3
:104410009AA1009769F714C06BA17CA18DA19EA100
:104420000E944900DC01CB019AA389A389A19AA12A
:104430009E8F8D8F8D8D9E8D0197F1F79E8F8D8F25
:104440008CE00E94D62680E090E0A0E8BFE3898F50
:104450009A8FAB8FBC8F698D7A8D8B8D9C8D20E070
:1044600030E04AEF54E40E94AC0FDC01CB018D8BAD
:104470009E8BAF8BB88F6D897E898F89988D20E058
:1044800030E040E85FE30E94B21188232CF481E021
:1044900090E09C8B8B8B3FC06D897E898F89988D36
:1044A00020E03FEF4FE757E40E94521118164CF5F9
:1044B000698D7A8D8B8D9C8D20E030E040E251E457
:1044C0000E94AC0FDC01CB01BC01CD010E94490070
:1044D000DC01CB019C8B8B8B0FC088EC90E09A8B1E
:1044E000898B89899A890197F1F79A8B898B8B89B6
:1044F0009C8901979C8B8B8B8B899C89009769F792
:1045000014C06D897E898F89988D0E944900DC01D5
:10451000CB019C8B8B8B8B899C89988B8F878F850C
:1045200098890197F1F7988B8F8781E00E94D626B2
:1045300080E090E0A0E0B0E48B879C87AD87BE87E9
:104540006B857C858D859E8520E030E04AEF54E4C4
:104550000E94AC0FDC01CB018F839887A987BA87B3
:104560006F81788589859A8520E030E040E85FE3B7
:104570000E94B21188232CF481E090E09E838D8309
:104580003FC06F81788589859A8520E03FEF4FE7AE
:1045900057E40E94521118164CF56B857C858D8569
:1045A0009E8520E030E040E251E40E94AC0FDC0147
:1045B000CB01BC01CD010E944900DC01CB019E83EF
:1045C0008D830FC088EC90E09C838B838B819C81D2
:1045D0000197F1F79C838B838D819E8101979E8348
:1045E0008D838D819E81009769F714C06F817885D6
:1045F00089859A850E944900DC01CB019E838D83C9
:104600008D819E819A83898389819A810197F1F7AF
:104610009A83898386E00E94D62689ADE9960FB6F3
:10462000F894DEBF0FBECDBFCF91DF910895DF9329
:10463000CF9300D0CDB7DEB78A8381E0898380E055
:1046400065E041E00E949D188A810E943828898196
:104650000F900F90CF91DF910895DF93CF9300D00B
:10466000CDB7DEB78A8381E0898380E065E040E0F2
:104670000E949D188A810E94382889810F900F908E
:10468000CF91DF910895DF93CF9300D00F92CDB7F4
:10469000DEB79B838A8319820EC08981282F30E080
:1046A0008A819B81FC01E20FF31F80810E94172306
:1046B00089818F5F89838981282F30E08A819B815E
:1046C000FC01E20FF31F8081882339F70F900F90D0
:1046D0000F90CF91DF910895DF93CF9300D0CDB7A6
:1046E000DEB789836A8389818F3629F48A8181586C
:1046F0000E94D62607C089818E3D21F48A8181548B
:104700000E94D6260F900F90CF91DF910895EF92DF
:10471000FF920F931F93DF93CF93CDB7DEB7289708
:104720000FB6F894DEBF0FBECDBF6D837E838F833F
:10473000988781E090E0A0E0B0E089839A83AB8322
:10474000BC838D819E81AF81B8850097A105B1059D
:10475000D1F580E30E94172370C089819A81AB81D3
:10476000BC812AE030E040E050E0BC01CD010E9475
:10477000D72C7B018C018D819E81AF81B8852AE089
:1047800030E040E050E0BC01CD010E94022DDC0190
:10479000CB018E0D9F1DA01FB11F89839A83AB8310
:1047A000BC838D819E81AF81B8852AE030E040E0F6
:1047B00050E0BC01CD010E94022DDA01C9018D83B8
:1047C0009E83AF83B8878D819E81AF81B885009726
:1047D000A105B10511F628C080E065E041E00E9426
:1047E0009D1889819A81AB81BC812AE030E040E04C
:1047F00050E0BC01CD010E94022DDC01CB01805DA7
:104800000E94382889819A81AB81BC812AE030E0FE
:1048100040E050E0BC01CD010E94022DDA01C90147
:1048200089839A83AB83BC8389819A81AB81BC8164
:1048300081309105A105B10579F628960FB6F89457
:10484000DEBF0FBECDBFCF91DF911F910F91FF90C3
:10485000EF900895DF93CF9300D000D000D0CDB774
:10486000DEB79B838A836C834D832E83198280E419
:104870000E94D62680E065E041E00E949D181982E2
:104880000EC08981282F30E08A819B81FC01E20FD4
:10489000F31F80810E94382889818F5F89838981F5
:1048A000282F30E08C81882F90E0880F991F880F87
:1048B000991F880F991F281739071CF38E818430A0
:1048C00031F48D810E94D6268E810E94D6261982CF
:1048D0000BC080E065E041E00E949D1889810E9444
:1048E000382889818F5F898399818C81981788F313
:1048F00026960FB6F894DEBF0FBECDBFCF91DF91E5
:1049000008952F923F924F925F926F927F928F9273
:104910009F92AF92BF92CF92DF92EF92FF920F934E
:104920001F93DF93CF93CDB7DEB7EF970FB6F89411
:10493000DEBF0FBECDBF69877A878B879C8769856D
:104940007A858B859C850E947500A22EB32EC42E7D
:10495000D52EE62EF72E082F192FD601C501BC0142
:10496000CD010E9487238EE20E94172369857A85F4
:104970008B859C8520E034E244E759E40E94AC0F2B
:10498000DC01CB01BC01CD010E947500A22EB32E2B
:10499000C42ED52EE62EF72E082F192FA982BA8203
:1049A000CB82DC82ED82FE820F831887A980BA80D9
:1049B000CB80DC80ED80FE800F8118852A2D3B2D79
:1049C0004C2D5D2D6E2D7F2D802F912F0F2EFAE017
:1049D000AF2EF02DBB24CC24DD24EE24FF2400E0F8
:1049E00010E00E949207A22EB32EC42ED52EE62EE2
:1049F000F72E082F192FAD8ABE8ACF8AD88EE98E5E
:104A0000FA8E0B8F1C8F8C8D882391F59C8D9923AA
:104A100009F057C18B8D882359F59B8D992309F097
:104A200050C18A8D882321F59A8D992309F049C1B7
:104A3000898D8823E9F4998D992309F042C1888DE5
:104A40008823B1F4988D992309F03BC18F8988237D
:104A500079F49F89992309F034C18E89882341F420
:104A60009E89992309F02DC18D89853008F429C1CB
:104A7000A980BA80CB80DC80ED80FE800F81188514
:104A80002A2D3B2D4C2D5D2D6E2D7F2D802F912FAE
:104A90000F2EFAE0AF2EF02DBB24CC24DD24EE2423
:104AA000FF2400E010E00E941D01A22EB32EC42EB0
:104AB000D52EE62EF72E082F192FAD86BE86CF866F
:104AC000D88AE98AFA8A0B8B1C8B91E09D8F1E8E07
:104AD0001F8E18A219A21AA21BA21CA28D859D8D41
:104AE000890F8DA381E08DA79DA18D85981708F072
:104AF0001DA69E858E8D980F9EA391E09EA78EA1E8
:104B00009E85891708F01EA68DA59EA1890F8FA7E7
:104B100081E088AB9FA58EA1981708F018AA9EA5E2
:104B200088A9982B9EA79FA59EA38F859F8D890FEF
:104B30008FA381E089AB9FA18F85981708F019AAF0
:104B40009EA58FA1980F9AAB91E09BAB8AA99FA1DC
:104B5000891708F01BAA89A99BA9892B89AB8AA967
:104B60008FA3988988A1980F98A791E09CAB88A5FE
:104B70009889891708F01CAA89A998A5890F8DAB77
:104B800081E08EAB9DA988A5981708F01EAA9CA964
:104B90008EA9982B9CAB9DA998A7898999A1890F6B
:104BA00089A781E08FAB99A58989981708F01FAA7A
:104BB0009CA989A5980F98AF91E099AF88AD99A568
:104BC000891708F019AE8FA999AD892B8FAB88ADE5
:104BD00089A79A898AA1980F9AA791E09AAF8AA586
:104BE0009A89891708F01AAE8FA99AA5890F8BAFF9
:104BF00081E08CAF9BAD8AA5981708F01CAE9AADEA
:104C00008CAD982B9AAF9BAD9AA78B899BA1890FEE
:104C10008BA781E08DAF9BA58B89981708F01DAEFF
:104C20009AAD8BA5980F9EAF91E09FAF8EAD9BA5DF
:104C3000891708F01FAE8DAD9FAD892B8DAF8EAD5E
:104C40008BA79C898CA1980F9CA78DAD9CA5890FE3
:104C50008CA7ADA0BEA0CFA0D8A4E9A4FAA40BA5B0
:104C60001CA52A2D3B2D4C2D5D2D6E2D7F2D802FCB
:104C7000912F0F2EF0EAAF2EF02D0F2EF6E8BF2E5B
:104C8000F02DCC24C394DD24EE24FF2400E010E0BA
:104C90000E949207A22EB32EC42ED52EE62EF72EFA
:104CA000082F192F2A2D3B2D4C2D5D2D6E2D7F2D7C
:104CB000802F912FDA01C901BC01CD010E94872309
:104CC0005CC0A980BA80CB80DC80ED80FE800F8143
:104CD00018852A2D3B2D4C2D5D2D6E2D7F2D802F7F
:104CE000912F0F2EFAE0AF2EF02DBB24CC24DD2423
:104CF000EE24FF2400E010E00E941D01222E332E3E
:104D0000442E552E662E772E882E992EA22CB32C4B
:104D1000C42CD52CE62CF72C082D192D2A2D3B2D33
:104D20004C2D5D2D6E2D7F2D802F912F0F2EF0EAB3
:104D3000AF2EF02D0F2EF6E8BF2EF02DCC24C3940D
:104D4000DD24EE24FF2400E010E00E949207A22E52
:104D5000B32EC42ED52EE62EF72E082F192F2A2D6E
:104D60003B2D4C2D5D2D6E2D7F2D802F912FDA0147
:104D7000C901BC01CD010E948723EF960FB6F894BC
:104D8000DEBF0FBECDBFCF91DF911F910F91FF907E
:104D9000EF90DF90CF90BF90AF909F908F907F90DB
:104DA0006F905F904F903F902F900895DF93CF9337
:104DB000CDB7DEB76D970FB6F894DEBF0FBECDBF8F
:104DC0008D8F80E065E040E00E949D1880E066E005
:104DD00040E00E949D1880E067E040E00E949D183E
:104DE0008D8D982F991F9927991F83E067E0492F90
:104DF0000E949D188D8D8295869586958370982F3B
:104E0000917083E066E0492F0E949D188D8D8295F8
:104E100086958770982F917083E065E0492F0E94F6
:104E20009D188D8D82958F70982F917083E064E02E
:104E3000492F0E949D188D8D869586958695982F71
:104E4000917083E063E0492F0E949D188D8D8695B7
:104E50008695982F917083E062E0492F0E949D18FB
:104E60008D8D8695982F917083E061E0492F0E9487
:104E70009D188D8D982F917083E060E0492F0E94DE
:104E80009D1880E067E041E00E949D1880E090E07E
:104E9000A0E2B1E4898F9A8FAB8FBC8F698D7A8D38
:104EA0008B8D9C8D20E030E04AEF54E40E94AC0FE3
:104EB000DC01CB018D8B9E8BAF8BB88F6D897E898A
:104EC0008F89988D20E030E040E85FE30E94B211C6
:104ED00088232CF481E090E09C8B8B8B3FC06D8904
:104EE0007E898F89988D20E03FEF4FE757E40E943D
:104EF000521118164CF5698D7A8D8B8D9C8D20E0A2
:104F000030E040E251E40E94AC0FDC01CB01BC0177
:104F1000CD010E944900DC01CB019C8B8B8B0FC023
:104F200088EC90E09A8B898B89899A890197F1F7AF
:104F30009A8B898B8B899C8901979C8B8B8B8B8916
:104F40009C89009769F714C06D897E898F89988D37
:104F50000E944900DC01CB019C8B8B8B8B899C8947
:104F6000988B8F878F8598890197F1F7988B8F871A
:104F700080E067E040E00E949D1880E090E0A0E2C1
:104F8000B1E48B879C87AD87BE876B857C858D85DB
:104F90009E8520E030E04AEF54E40E94AC0FDC0133
:104FA000CB018F839887A987BA876F817885898598
:104FB0009A8520E030E040E85FE30E94B211882348
:104FC0002CF481E090E09E838D833FC06F817885D3
:104FD00089859A8520E03FEF4FE757E40E94521100
:104FE00018164CF56B857C858D859E8520E030E01C
:104FF00040E251E40E94AC0FDC01CB01BC01CD01C9
:105000000E944900DC01CB019E838D830FC088EC98
:1050100090E09C838B838B819C810197F1F79C832B
:105020008B838D819E8101979E838D838D819E814F
:10503000009769F714C06F81788589859A850E94E9
:105040004900DC01CB019E838D838D819E819A83F3
:10505000898389819A810197F1F79A8389836D9673
:105060000FB6F894DEBF0FBECDBFCF91DF9108958C
:10507000DF93CF93CDB7DEB76D970FB6F894DEBF51
:105080000FBECDBF8D8F80E066E040E00E949D188E
:1050900080E067E040E00E949D188D8D982F991F59
:1050A0009927991F83E067E0492F0E949D188D8DF5
:1050B0008295869586958370982F917083E066E03F
:1050C000492F0E949D188D8D829586958770982F07
:1050D000917083E065E0492F0E949D188D8D829527
:1050E0008F70982F917083E064E0492F0E949D1883
:1050F0008D8D869586958695982F917083E063E0D7
:10510000492F0E949D188D8D86958695982F9170B8
:1051100083E062E0492F0E949D188D8D8695982F1F
:10512000917083E061E0492F0E949D188D8D982F2A
:10513000917083E060E0492F0E949D1880E067E055
:1051400041E00E949D1880E090E0A0E2B1E4898FE8
:105150009A8FAB8FBC8F698D7A8D8B8D9C8D20E063
:1051600030E04AEF54E40E94AC0FDC01CB018D8BA0
:105170009E8BAF8BB88F6D897E898F89988D20E04B
:1051800030E040E85FE30E94B21188232CF481E014
:1051900090E09C8B8B8B3FC06D897E898F89988D29
:1051A00020E03FEF4FE757E40E94521118164CF5EC
:1051B000698D7A8D8B8D9C8D20E030E040E251E44A
:1051C0000E94AC0FDC01CB01BC01CD010E94490063
:1051D000DC01CB019C8B8B8B0FC088EC90E09A8B11
:1051E000898B89899A890197F1F79A8B898B8B89A9
:1051F0009C8901979C8B8B8B8B899C89009769F785
:1052000014C06D897E898F89988D0E944900DC01C8
:10521000CB019C8B8B8B8B899C89988B8F878F85FF
:1052200098890197F1F7988B8F8780E067E040E0DD
:105230000E949D1880E090E0A0E2B1E48B879C87FB
:10524000AD87BE876B857C858D859E8520E030E0AF
:105250004AEF54E40E94AC0FDC01CB018F839887A6
:10526000A987BA876F81788589859A8520E030E0A3
:1052700040E85FE30E94B21188232CF481E090E0C3
:105280009E838D833FC06F81788589859A8520E0D4
:105290003FEF4FE757E40E94521118164CF56B850B
:1052A0007C858D859E8520E030E040E251E40E94BF
:1052B000AC0FDC01CB01BC01CD010E944900DC0137
:1052C000CB019E838D830FC088EC90E09C838B8301
:1052D0008B819C810197F1F79C838B838D819E81CB
:1052E00001979E838D838D819E81009769F714C0FD
:1052F0006F81788589859A850E944900DC01CB0100
:105300009E838D838D819E819A83898389819A81F1
:105310000197F1F79A8389836D960FB6F894DEBFF3
:105320000FBECDBFCF91DF910895DF93CF93CDB75F
:10533000DEB70E943D16CF91DF910895DF93CF93A2
:1053400000D000D0CDB7DEB79B838A836C831982EF
:105350000E948B16898389818130F1F48A819B8137
:10536000892F9927837080650E941C178983898102
:10537000813091F48A810E944A1789838981813022
:1053800059F48C810E944A1789838981813021F4E4
:105390000E94D91681E0898389810F900F900F9028
:1053A0000F90CF91DF910895DF93CF9300D000D07D
:1053B0000F92CDB7DEB79B838A837D836C8319827E
:1053C0000E948B1689838981813079F58A819B813E
:1053D000892F9927837080650E941C178983898192
:1053E000813019F58A810E944A1789838981813029
:1053F000E1F40E94B216898389818130B1F48A81F7
:105400009B81892F9927837080650E94EA16898382
:105410008981813051F48C819D810E94721789832A
:105420008981813011F40E94D91689810F900F90E3
:105430000F900F900F90CF91DF910895DF93CF934E
:10544000CDB7DEB7E8970FB6F894DEBF0FBECDBF7D
:1054500080E090E066E00E949E2980E090E0A8EC69
:10546000B2E48DAB9EABAFABB8AF6DA97EA98FA9EF
:1054700098AD20E030E04AEF54E40E94AC0FDC012C
:10548000CB0189AB9AABABABBCAB69A97AA98BA9B1
:105490009CA920E030E040E85FE30E94B21188233D
:1054A0002CF481E090E098AB8FA73FC069A97AA95E
:1054B0008BA99CA920E03FEF4FE757E40E945211CF
:1054C00018164CF56DA97EA98FA998AD20E030E0A3
:1054D00040E251E40E94AC0FDC01CB01BC01CD01E4
:1054E0000E944900DC01CB0198AB8FA70FC088EC6C
:1054F00090E09EA78DA78DA59EA50197F1F79EA789
:105500008DA78FA598A9019798AB8FA78FA598A96C
:10551000009769F714C069A97AA98BA99CA90E9470
:105520004900DC01CB0198AB8FA78FA598A99CA758
:105530008BA78BA59CA50197F1F79CA78BA781E072
:1055400090E06FE00E949E2980E090E0A8ECB2E439
:105550008FA398A7A9A7BAA76FA178A589A59AA58F
:1055600020E030E04AEF54E40E94AC0FDC01CB01B4
:105570008BA39CA3ADA3BEA36BA17CA18DA19EA177
:1055800020E030E040E85FE30E94B21188232CF471
:1055900081E090E09AA389A33FC06BA17CA18DA17B
:1055A0009EA120E03FEF4FE757E40E9452111816EA
:1055B0004CF56FA178A589A59AA520E030E040E2DE
:1055C00051E40E94AC0FDC01CB01BC01CD010E9473
:1055D0004900DC01CB019AA389A30FC088EC90E0BD
:1055E00098A38F8F8F8D98A10197F1F798A38F8F34
:1055F00089A19AA101979AA389A389A19AA1009749
:1056000069F714C06BA17CA18DA19EA10E944900E5
:10561000DC01CB019AA389A389A19AA19E8F8D8FCA
:105620008D8D9E8D0197F1F79E8F8D8F82E090E09A
:1056300061E10E949E2980E090E0A8ECB2E4898FAD
:105640009A8FAB8FBC8F698D7A8D8B8D9C8D20E06E
:1056500030E04AEF54E40E94AC0FDC01CB018D8BAB
:105660009E8BAF8BB88F6D897E898F89988D20E056
:1056700030E040E85FE30E94B21188232CF481E01F
:1056800090E09C8B8B8B3FC06D897E898F89988D34
:1056900020E03FEF4FE757E40E94521118164CF5F7
:1056A000698D7A8D8B8D9C8D20E030E040E251E455
:1056B0000E94AC0FDC01CB01BC01CD010E9449006E
:1056C000DC01CB019C8B8B8B0FC088EC90E09A8B1C
:1056D000898B89899A890197F1F79A8B898B8B89B4
:1056E0009C8901979C8B8B8B8B899C89009769F790
:1056F00014C06D897E898F89988D0E944900DC01D4
:10570000CB019C8B8B8B8B899C89988B8F878F850A
:1057100098890197F1F7988B8F8783E090E064E197
:105720000E949E2980E090E0A8ECB2E48B879C87E1
:10573000AD87BE876B857C858D859E8520E030E0BA
:105740004AEF54E40E94AC0FDC01CB018F839887B1
:10575000A987BA876F81788589859A8520E030E0AE
:1057600040E85FE30E94B21188232CF481E090E0CE
:105770009E838D833FC06F81788589859A8520E0DF
:105780003FEF4FE757E40E94521118164CF56B8516
:105790007C858D859E8520E030E040E251E40E94CA
:1057A000AC0FDC01CB01BC01CD010E944900DC0142
:1057B000CB019E838D830FC088EC90E09C838B830C
:1057C0008B819C810197F1F79C838B838D819E81D6
:1057D00001979E838D838D819E81009769F714C008
:1057E0006F81788589859A850E944900DC01CB010B
:1057F0009E838D838D819E819A83898389819A81FD
:105800000197F1F79A838983E8960FB6F894DEBF83
:105810000FBECDBFCF91DF910895DF93CF93CDB76A
:10582000DEB728E631E082E090E0B9010E94D42999
:1058300029E631E083E090E0B9010E94D4292AE60C
:1058400031E080E090E0B9010E94D4292BE631E0FC
:1058500081E090E0B9010E94D429CF91DF910895B1
:10586000DF93CF93CDB7DEB728970FB6F894DEBF9E
:105870000FBECDBF0E94F6200E944A1D80E00E940C
:10588000E11F0E94952981E08B831A82198282E3AD
:105890008C838FE08D8386E08E831886CE010496FC
:1058A0000E949D1D0E941E2A0E940D2C898181301C
:1058B00021F40E941E2A0E940D2C80E00E94F01FFD
:1058C0008A83CE0104960E94C71E8885882311F51D
:1058D0009E81809168018917C8F09E81809168013E
:1058E000981729F49D8180916901981779F09E811C
:1058F00080916A01981750F09E8180916A019817F3
:1059000039F49D8180916B01981711F41B8202C0BC
:1059100081E08B838B81882309F041C08A818B359C
:1059200040F060E070E080E090E041E00E94BA1555
:10593000BDCF8A818A3558F48A81873440F060E08F
:1059400070E080EF91E441E00E94BA15AFCF8A8108
:10595000833358F08A81863440F460E070E088E454
:1059600092E441E00E94BA15A1CF8A81823358F4B3
:105970008A818F3140F060E070E08CE892E441E091
:105980000E94BA1593CF8A818E3108F08FCF60E0E4
:1059900070E088EC92E441E00E94BA1587CF60E0A5
:1059A00070E080E090E041E00E94BA157FCF629FF6
:1059B000D001739FF001829FE00DF11D649FE00D07
:1059C000F11D929FF00D839FF00D749FF00D659F68
:1059D000F00D9927729FB00DE11DF91F639FB00D67
:1059E000E11DF91FBD01CF0111240895991B79E034
:1059F00004C0991F961708F0961B881F7A95C9F75F
:105A000080950895A1E21A2EAA1BBB1BFD010DC0B3
:105A1000AA1FBB1FEE1FFF1FA217B307E407F5075E
:105A200020F0A21BB30BE40BF50B661F771F881F3A
:105A3000991F1A9469F760957095809590959B01D0
:105A4000AC01BD01CF0108952F923F924F925F921A
:105A50006F927F928F929F92AF92BF92CF92DF927E
:105A6000EF92FF920F931F93CF93DF93CDB7DEB7E3
:105A7000CA1BDB0B0FB6F894DEBF0FBECDBF099477
:105A80002A88398848885F846E847D848C849B84CE
:105A9000AA84B984C884DF80EE80FD800C811B81DC
:105AA000AA81B981CE0FD11D0FB6F894DEBF0FBE0B
:0A5AB000CDBFED010895F894FFCF7B
:105ABA0000000000000000000001020203030303CB
:105ACA000404040404040404050505050505050584
